{
  "_format": "hh3-artifact-1",
  "contractName": "NewsRegistry",
  "sourceName": "contracts/NewsRegistry.sol",
  "abi": [
    {
      "inputs": [
        {
          "internalType": "address",
          "name": "_zkVerifier",
          "type": "address"
        }
      ],
      "stateMutability": "nonpayable",
      "type": "constructor"
    },
    {
      "anonymous": false,
      "inputs": [
        {
          "indexed": true,
          "internalType": "uint256",
          "name": "newsId",
          "type": "uint256"
        },
        {
          "indexed": true,
          "internalType": "bytes32",
          "name": "contentHash",
          "type": "bytes32"
        },
        {
          "indexed": true,
          "internalType": "address",
          "name": "submitter",
          "type": "address"
        },
        {
          "indexed": false,
          "internalType": "bytes32",
          "name": "submitterZkHash",
          "type": "bytes32"
        },
        {
          "indexed": false,
          "internalType": "uint256",
          "name": "aiScore",
          "type": "uint256"
        },
        {
          "indexed": false,
          "internalType": "uint256",
          "name": "timestamp",
          "type": "uint256"
        }
      ],
      "name": "NewsSubmitted",
      "type": "event"
    },
    {
      "inputs": [
        {
          "internalType": "uint256",
          "name": "",
          "type": "uint256"
        }
      ],
      "name": "allNewsIds",
      "outputs": [
        {
          "internalType": "uint256",
          "name": "",
          "type": "uint256"
        }
      ],
      "stateMutability": "view",
      "type": "function"
    },
    {
      "inputs": [
        {
          "internalType": "bytes32",
          "name": "",
          "type": "bytes32"
        }
      ],
      "name": "contentHashToNewsId",
      "outputs": [
        {
          "internalType": "uint256",
          "name": "",
          "type": "uint256"
        }
      ],
      "stateMutability": "view",
      "type": "function"
    },
    {
      "inputs": [
        {
          "internalType": "uint256",
          "name": "newsId",
          "type": "uint256"
        }
      ],
      "name": "getAIScore",
      "outputs": [
        {
          "internalType": "uint256",
          "name": "",
          "type": "uint256"
        }
      ],
      "stateMutability": "view",
      "type": "function"
    },
    {
      "inputs": [
        {
          "internalType": "uint256",
          "name": "count",
          "type": "uint256"
        }
      ],
      "name": "getLatestNews",
      "outputs": [
        {
          "internalType": "uint256[]",
          "name": "",
          "type": "uint256[]"
        }
      ],
      "stateMutability": "view",
      "type": "function"
    },
    {
      "inputs": [
        {
          "internalType": "uint256",
          "name": "newsId",
          "type": "uint256"
        }
      ],
      "name": "getNews",
      "outputs": [
        {
          "components": [
            {
              "internalType": "uint256",
              "name": "id",
              "type": "uint256"
            },
            {
              "internalType": "bytes32",
              "name": "contentHash",
              "type": "bytes32"
            },
            {
              "internalType": "uint256",
              "name": "aiScore",
              "type": "uint256"
            },
            {
              "internalType": "address",
              "name": "submitter",
              "type": "address"
            },
            {
              "internalType": "bytes32",
              "name": "submitterZkHash",
              "type": "bytes32"
            },
            {
              "internalType": "uint256",
              "name": "timestamp",
              "type": "uint256"
            },
            {
              "internalType": "string",
              "name": "title",
              "type": "string"
            },
            {
              "internalType": "string",
              "name": "sourceUrl",
              "type": "string"
            },
            {
              "internalType": "bool",
              "name": "exists",
              "type": "bool"
            }
          ],
          "internalType": "struct NewsRegistry.News",
          "name": "",
          "type": "tuple"
        }
      ],
      "stateMutability": "view",
      "type": "function"
    },
    {
      "inputs": [
        {
          "internalType": "uint256",
          "name": "offset",
          "type": "uint256"
        },
        {
          "internalType": "uint256",
          "name": "limit",
          "type": "uint256"
        }
      ],
      "name": "getNewsList",
      "outputs": [
        {
          "internalType": "uint256[]",
          "name": "",
          "type": "uint256[]"
        }
      ],
      "stateMutability": "view",
      "type": "function"
    },
    {
      "inputs": [],
      "name": "getTotalNews",
      "outputs": [
        {
          "internalType": "uint256",
          "name": "",
          "type": "uint256"
        }
      ],
      "stateMutability": "view",
      "type": "function"
    },
    {
      "inputs": [
        {
          "internalType": "uint256",
          "name": "",
          "type": "uint256"
        }
      ],
      "name": "newsById",
      "outputs": [
        {
          "internalType": "uint256",
          "name": "id",
          "type": "uint256"
        },
        {
          "internalType": "bytes32",
          "name": "contentHash",
          "type": "bytes32"
        },
        {
          "internalType": "uint256",
          "name": "aiScore",
          "type": "uint256"
        },
        {
          "internalType": "address",
          "name": "submitter",
          "type": "address"
        },
        {
          "internalType": "bytes32",
          "name": "submitterZkHash",
          "type": "bytes32"
        },
        {
          "internalType": "uint256",
          "name": "timestamp",
          "type": "uint256"
        },
        {
          "internalType": "string",
          "name": "title",
          "type": "string"
        },
        {
          "internalType": "string",
          "name": "sourceUrl",
          "type": "string"
        },
        {
          "internalType": "bool",
          "name": "exists",
          "type": "bool"
        }
      ],
      "stateMutability": "view",
      "type": "function"
    },
    {
      "inputs": [],
      "name": "newsCount",
      "outputs": [
        {
          "internalType": "uint256",
          "name": "",
          "type": "uint256"
        }
      ],
      "stateMutability": "view",
      "type": "function"
    },
    {
      "inputs": [],
      "name": "owner",
      "outputs": [
        {
          "internalType": "address",
          "name": "",
          "type": "address"
        }
      ],
      "stateMutability": "view",
      "type": "function"
    },
    {
      "inputs": [
        {
          "internalType": "bytes32",
          "name": "contentHash",
          "type": "bytes32"
        },
        {
          "internalType": "string",
          "name": "title",
          "type": "string"
        },
        {
          "internalType": "string",
          "name": "sourceUrl",
          "type": "string"
        },
        {
          "internalType": "uint256",
          "name": "aiScore",
          "type": "uint256"
        }
      ],
      "name": "submitNews",
      "outputs": [
        {
          "internalType": "uint256",
          "name": "",
          "type": "uint256"
        }
      ],
      "stateMutability": "nonpayable",
      "type": "function"
    },
    {
      "inputs": [
        {
          "internalType": "address",
          "name": "newOwner",
          "type": "address"
        }
      ],
      "name": "transferOwnership",
      "outputs": [],
      "stateMutability": "nonpayable",
      "type": "function"
    },
    {
      "inputs": [],
      "name": "zkVerifier",
      "outputs": [
        {
          "internalType": "contract ZKVerifier",
          "name": "",
          "type": "address"
        }
      ],
      "stateMutability": "view",
      "type": "function"
    }
  ],
  "bytecode": "0x6080604052348015600e575f5ffd5b50604051611416380380611416833981016040819052602b9160b1565b6001600160a01b03811660845760405162461bcd60e51b815260206004820152601a60248201527f496e76616c6964205a4b56657269666965722061646472657373000000000000604482015260640160405180910390fd5b600480546001600160a01b039092166001600160a01b0319928316179055600580549091163317905560dc565b5f6020828403121560c0575f5ffd5b81516001600160a01b038116811460d5575f5ffd5b9392505050565b61132d806100e95f395ff3fe608060405234801561000f575f5ffd5b50600436106100cb575f3560e01c80638da5cb5b11610088578063ba53911b11610063578063ba53911b146101c8578063d204ff3e146101e8578063d6df096d146101ef578063f2fde38b14610202575f5ffd5b80638da5cb5b1461016d5780639981d6d314610198578063a45d73ba146101a0575f5ffd5b80630311b82d146100cf5780631b197841146100f55780631c4289891461011557806321eab5a31461012857806347085c701461013b5780635d74a6a11461015a575b5f5ffd5b6100e26100dd366004610e5a565b610217565b6040519081526020015b60405180910390f35b610108610103366004610e5a565b610287565b6040516100ec9190610e71565b6100e2610123366004610ef8565b610350565b6100e2610136366004610e5a565b6108b1565b6100e2610149366004610e5a565b60026020525f908152604090205481565b610108610168366004610f79565b6108d0565b600554610180906001600160a01b031681565b6040516001600160a01b0390911681526020016100ec565b6100e25f5481565b6101b36101ae366004610e5a565b6109f6565b6040516100ec99989796959493929190610fc7565b6101db6101d6366004610e5a565b610b5a565b6040516100ec9190611033565b5f546100e2565b600454610180906001600160a01b031681565b6102156102103660046110db565b610d9e565b005b5f8181526001602052604081206008015460ff166102725760405162461bcd60e51b815260206004820152601360248201527213995ddcc8191bd95cc81b9bdd08195e1a5cdd606a1b60448201526064015b60405180910390fd5b505f9081526001602052604090206002015490565b60035460609082111561029a5760035491505b5f8267ffffffffffffffff8111156102b4576102b4611108565b6040519080825280602002602001820160405280156102dd578160200160208202803683370190505b506003549091505f906102f1908590611130565b90505f5b848110156103475760036103098284611143565b8154811061031957610319611156565b905f5260205f20015483828151811061033457610334611156565b60209081029190910101526001016102f5565b50909392505050565b6004805460405163fb9635b360e01b815233928101929092525f9182916001600160a01b03169063fb9635b390602401602060405180830381865afa15801561039b573d5f5f3e3d5ffd5b505050506040513d601f19601f820116820180604052508101906103bf919061116a565b9050806104025760405162461bcd60e51b8152602060048201526011602482015270155cd95c881b9bdd081d995c9a599a5959607a1b6044820152606401610269565b6004805460405163c181b27360e01b81529182018390526001600160a01b03169063c181b27390602401602060405180830381865afa158015610447573d5f5f3e3d5ffd5b505050506040513d601f19601f8201168201806040525081019061046b9190611181565b6104b75760405162461bcd60e51b815260206004820152601960248201527f5573657220766572696669636174696f6e20696e76616c6964000000000000006044820152606401610269565b876104fb5760405162461bcd60e51b8152602060048201526014602482015273092dcecc2d8d2c840c6dedce8cadce840d0c2e6d60631b6044820152606401610269565b851580159061050b575060c88611155b61054e5760405162461bcd60e51b8152602060048201526014602482015273092dcecc2d8d2c840e8d2e8d8ca40d8cadccee8d60631b6044820152606401610269565b831580159061055f57506101f48411155b6105a05760405162461bcd60e51b8152602060048201526012602482015271092dcecc2d8d2c840aaa49840d8cadccee8d60731b6044820152606401610269565b60648311156105e75760405162461bcd60e51b8152602060048201526013602482015272053636f7265206d75737420626520302d31303606c1b6044820152606401610269565b5f888152600260205260409020541561063b5760405162461bcd60e51b815260206004820152601660248201527513995ddcc8185b1c9958591e481cdd589b5a5d1d195960521b6044820152606401610269565b6004805460405163fb9635b360e01b815233928101929092525f916001600160a01b039091169063fb9635b390602401602060405180830381865afa158015610686573d5f5f3e3d5ffd5b505050506040513d601f19601f820116820180604052508101906106aa919061116a565b5f8054919250806106ba836111a0565b91905055505f5f5490506040518061012001604052808281526020018b8152602001868152602001336001600160a01b031681526020018381526020014281526020018a8a8080601f0160208091040260200160405190810160405280939291908181526020018383808284375f92019190915250505090825250604080516020601f8b0181900481028201810190925289815291810191908a908a90819084018382808284375f92018290525093855250506001602093840181905285835280845260409283902085518155938501519084015550820151600282015560608201516003820180546001600160a01b0319166001600160a01b039092169190911790556080820151600482015560a0820151600582015560c082015160068201906107e6908261123c565b5060e082015160078201906107fb908261123c565b5061010091909101516008909101805460ff19169115159190911790555f8a81526002602090815260408083208490556003805460018101825593527fc2575a0e9e593c00f959f8c92f12db2869c3395a3b0502d05e2516446f71f85b9092018390558151848152908101879052429181019190915233908b9083907fd95188b7716a71ba9d456444a50be47bed89ef12519ce4d5151a9e2694e39cba9060600160405180910390a49998505050505050505050565b600381815481106108c0575f80fd5b5f91825260209091200154905081565b6003546060908310806108e35750600354155b6109265760405162461bcd60e51b81526020600482015260146024820152734f6666736574206f7574206f6620626f756e647360601b6044820152606401610269565b5f6109318385611143565b60035490915081111561094357506003545b5f61094e8583611130565b90505f8167ffffffffffffffff81111561096a5761096a611108565b604051908082528060200260200182016040528015610993578160200160208202803683370190505b5090505f5b828110156109ea5760036109ac8289611143565b815481106109bc576109bc611156565b905f5260205f2001548282815181106109d7576109d7611156565b6020908102919091010152600101610998565b50925050505b92915050565b600160208190525f91825260409091208054918101546002820154600383015460048401546005850154600686018054959694956001600160a01b03909416949293919291610a44906111b8565b80601f0160208091040260200160405190810160405280929190818152602001828054610a70906111b8565b8015610abb5780601f10610a9257610100808354040283529160200191610abb565b820191905f5260205f20905b815481529060010190602001808311610a9e57829003601f168201915b505050505090806007018054610ad0906111b8565b80601f0160208091040260200160405190810160405280929190818152602001828054610afc906111b8565b8015610b475780601f10610b1e57610100808354040283529160200191610b47565b820191905f5260205f20905b815481529060010190602001808311610b2a57829003601f168201915b5050506008909301549192505060ff1689565b610bad6040518061012001604052805f81526020015f81526020015f81526020015f6001600160a01b031681526020015f81526020015f815260200160608152602001606081526020015f151581525090565b5f8281526001602052604090206008015460ff16610c035760405162461bcd60e51b815260206004820152601360248201527213995ddcc8191bd95cc81b9bdd08195e1a5cdd606a1b6044820152606401610269565b5f8281526001602081815260409283902083516101208101855281548152928101549183019190915260028101549282019290925260038201546001600160a01b0316606082015260048201546080820152600582015460a082015260068201805491929160c084019190610c77906111b8565b80601f0160208091040260200160405190810160405280929190818152602001828054610ca3906111b8565b8015610cee5780601f10610cc557610100808354040283529160200191610cee565b820191905f5260205f20905b815481529060010190602001808311610cd157829003601f168201915b50505050508152602001600782018054610d07906111b8565b80601f0160208091040260200160405190810160405280929190818152602001828054610d33906111b8565b8015610d7e5780601f10610d5557610100808354040283529160200191610d7e565b820191905f5260205f20905b815481529060010190602001808311610d6157829003601f168201915b50505091835250506008919091015460ff16151560209091015292915050565b6005546001600160a01b03163314610dee5760405162461bcd60e51b815260206004820152601360248201527213db9b1e481bdddb995c8818d85b8818d85b1b606a1b6044820152606401610269565b6001600160a01b038116610e385760405162461bcd60e51b815260206004820152601160248201527024b73b30b634b2103732bb9037bbb732b960791b6044820152606401610269565b600580546001600160a01b0319166001600160a01b0392909216919091179055565b5f60208284031215610e6a575f5ffd5b5035919050565b602080825282518282018190525f918401906040840190835b81811015610ea8578351835260209384019390920191600101610e8a565b509095945050505050565b5f5f83601f840112610ec3575f5ffd5b50813567ffffffffffffffff811115610eda575f5ffd5b602083019150836020828501011115610ef1575f5ffd5b9250929050565b5f5f5f5f5f5f60808789031215610f0d575f5ffd5b86359550602087013567ffffffffffffffff811115610f2a575f5ffd5b610f3689828a01610eb3565b909650945050604087013567ffffffffffffffff811115610f55575f5ffd5b610f6189828a01610eb3565b979a9699509497949695606090950135949350505050565b5f5f60408385031215610f8a575f5ffd5b50508035926020909101359150565b5f81518084528060208401602086015e5f602082860101526020601f19601f83011685010191505092915050565b89815288602082015287604082015260018060a01b03871660608201528560808201528460a082015261012060c08201525f611007610120830186610f99565b82810360e08401526110198186610f99565b9150508215156101008301529a9950505050505050505050565b602081528151602082015260208201516040820152604082015160608201525f606083015161106d60808401826001600160a01b03169052565b50608083015160a083015260a083015160c083015260c083015161012060e084015261109d610140840182610f99565b905060e0840151601f19848303016101008501526110bb8282610f99565b9150506101008401516110d361012085018215159052565b509392505050565b5f602082840312156110eb575f5ffd5b81356001600160a01b0381168114611101575f5ffd5b9392505050565b634e487b7160e01b5f52604160045260245ffd5b634e487b7160e01b5f52601160045260245ffd5b818103818111156109f0576109f061111c565b808201808211156109f0576109f061111c565b634e487b7160e01b5f52603260045260245ffd5b5f6020828403121561117a575f5ffd5b5051919050565b5f60208284031215611191575f5ffd5b81518015158114611101575f5ffd5b5f600182016111b1576111b161111c565b5060010190565b600181811c908216806111cc57607f821691505b6020821081036111ea57634e487b7160e01b5f52602260045260245ffd5b50919050565b601f82111561123757805f5260205f20601f840160051c810160208510156112155750805b601f840160051c820191505b81811015611234575f8155600101611221565b50505b505050565b815167ffffffffffffffff81111561125657611256611108565b61126a8161126484546111b8565b846111f0565b6020601f82116001811461129c575f83156112855750848201515b5f19600385901b1c1916600184901b178455611234565b5f84815260208120601f198516915b828110156112cb57878501518255602094850194600190920191016112ab565b50848210156112e857868401515f19600387901b60f8161c191681555b50505050600190811b0190555056fea26469706673582212200642cc0af419a56ac828d6d273078f096229620d8a99a3d56e58538f919e11f664736f6c634300081c0033",
  "linkReferences": {},
  "deployedLinkReferences": {},
  "immutableReferences": {},
  "inputSourceName": "project/contracts/NewsRegistry.sol",
  "buildInfoId": "solc-0_8_28-8406b792307e8726776225a2d848574f5e078afe"
}