{
  "_format": "hh3-artifact-1",
  "contractName": "ConsensusEngine",
  "sourceName": "contracts/ConsensusEngine.sol",
  "abi": [
    {
      "inputs": [
        {
          "internalType": "address",
          "name": "_newsRegistry",
          "type": "address"
        },
        {
          "internalType": "address",
          "name": "_voteManager",
          "type": "address"
        }
      ],
      "stateMutability": "nonpayable",
      "type": "constructor"
    },
    {
      "anonymous": false,
      "inputs": [
        {
          "indexed": true,
          "internalType": "uint256",
          "name": "newsId",
          "type": "uint256"
        },
        {
          "indexed": false,
          "internalType": "enum ConsensusEngine.Verdict",
          "name": "verdict",
          "type": "uint8"
        },
        {
          "indexed": false,
          "internalType": "uint256",
          "name": "finalScore",
          "type": "uint256"
        },
        {
          "indexed": false,
          "internalType": "uint256",
          "name": "confidence",
          "type": "uint256"
        },
        {
          "indexed": false,
          "internalType": "uint256",
          "name": "timestamp",
          "type": "uint256"
        }
      ],
      "name": "VerdictCalculated",
      "type": "event"
    },
    {
      "anonymous": false,
      "inputs": [
        {
          "indexed": true,
          "internalType": "uint256",
          "name": "newsId",
          "type": "uint256"
        },
        {
          "indexed": false,
          "internalType": "enum ConsensusEngine.Verdict",
          "name": "verdict",
          "type": "uint8"
        },
        {
          "indexed": false,
          "internalType": "uint256",
          "name": "timestamp",
          "type": "uint256"
        }
      ],
      "name": "VerdictFinalized",
      "type": "event"
    },
    {
      "inputs": [],
      "name": "aiWeight",
      "outputs": [
        {
          "internalType": "uint256",
          "name": "",
          "type": "uint256"
        }
      ],
      "stateMutability": "view",
      "type": "function"
    },
    {
      "inputs": [
        {
          "internalType": "uint256",
          "name": "newsId",
          "type": "uint256"
        }
      ],
      "name": "calculateVerdict",
      "outputs": [],
      "stateMutability": "nonpayable",
      "type": "function"
    },
    {
      "inputs": [],
      "name": "disputeThreshold",
      "outputs": [
        {
          "internalType": "uint256",
          "name": "",
          "type": "uint256"
        }
      ],
      "stateMutability": "view",
      "type": "function"
    },
    {
      "inputs": [],
      "name": "fakeThreshold",
      "outputs": [
        {
          "internalType": "uint256",
          "name": "",
          "type": "uint256"
        }
      ],
      "stateMutability": "view",
      "type": "function"
    },
    {
      "inputs": [
        {
          "internalType": "uint256",
          "name": "newsId",
          "type": "uint256"
        }
      ],
      "name": "getResult",
      "outputs": [
        {
          "components": [
            {
              "internalType": "uint256",
              "name": "newsId",
              "type": "uint256"
            },
            {
              "internalType": "enum ConsensusEngine.Verdict",
              "name": "verdict",
              "type": "uint8"
            },
            {
              "internalType": "uint256",
              "name": "aiScore",
              "type": "uint256"
            },
            {
              "internalType": "uint256",
              "name": "communityScore",
              "type": "uint256"
            },
            {
              "internalType": "uint256",
              "name": "finalScore",
              "type": "uint256"
            },
            {
              "internalType": "uint256",
              "name": "confidence",
              "type": "uint256"
            },
            {
              "internalType": "uint256",
              "name": "timestamp",
              "type": "uint256"
            },
            {
              "internalType": "bool",
              "name": "finalized",
              "type": "bool"
            }
          ],
          "internalType": "struct ConsensusEngine.ConsensusResult",
          "name": "",
          "type": "tuple"
        }
      ],
      "stateMutability": "view",
      "type": "function"
    },
    {
      "inputs": [
        {
          "internalType": "uint256",
          "name": "newsId",
          "type": "uint256"
        }
      ],
      "name": "getVerdict",
      "outputs": [
        {
          "internalType": "enum ConsensusEngine.Verdict",
          "name": "",
          "type": "uint8"
        }
      ],
      "stateMutability": "view",
      "type": "function"
    },
    {
      "inputs": [
        {
          "internalType": "uint256",
          "name": "newsId",
          "type": "uint256"
        }
      ],
      "name": "isFinalized",
      "outputs": [
        {
          "internalType": "bool",
          "name": "",
          "type": "bool"
        }
      ],
      "stateMutability": "view",
      "type": "function"
    },
    {
      "inputs": [],
      "name": "minVotesRequired",
      "outputs": [
        {
          "internalType": "uint256",
          "name": "",
          "type": "uint256"
        }
      ],
      "stateMutability": "view",
      "type": "function"
    },
    {
      "inputs": [],
      "name": "newsRegistry",
      "outputs": [
        {
          "internalType": "contract NewsRegistry",
          "name": "",
          "type": "address"
        }
      ],
      "stateMutability": "view",
      "type": "function"
    },
    {
      "inputs": [],
      "name": "owner",
      "outputs": [
        {
          "internalType": "address",
          "name": "",
          "type": "address"
        }
      ],
      "stateMutability": "view",
      "type": "function"
    },
    {
      "inputs": [],
      "name": "realThreshold",
      "outputs": [
        {
          "internalType": "uint256",
          "name": "",
          "type": "uint256"
        }
      ],
      "stateMutability": "view",
      "type": "function"
    },
    {
      "inputs": [
        {
          "internalType": "uint256",
          "name": "",
          "type": "uint256"
        }
      ],
      "name": "results",
      "outputs": [
        {
          "internalType": "uint256",
          "name": "newsId",
          "type": "uint256"
        },
        {
          "internalType": "enum ConsensusEngine.Verdict",
          "name": "verdict",
          "type": "uint8"
        },
        {
          "internalType": "uint256",
          "name": "aiScore",
          "type": "uint256"
        },
        {
          "internalType": "uint256",
          "name": "communityScore",
          "type": "uint256"
        },
        {
          "internalType": "uint256",
          "name": "finalScore",
          "type": "uint256"
        },
        {
          "internalType": "uint256",
          "name": "confidence",
          "type": "uint256"
        },
        {
          "internalType": "uint256",
          "name": "timestamp",
          "type": "uint256"
        },
        {
          "internalType": "bool",
          "name": "finalized",
          "type": "bool"
        }
      ],
      "stateMutability": "view",
      "type": "function"
    },
    {
      "inputs": [
        {
          "internalType": "uint256",
          "name": "newWeight",
          "type": "uint256"
        }
      ],
      "name": "setAIWeight",
      "outputs": [],
      "stateMutability": "nonpayable",
      "type": "function"
    },
    {
      "inputs": [
        {
          "internalType": "uint256",
          "name": "newMin",
          "type": "uint256"
        }
      ],
      "name": "setMinVotesRequired",
      "outputs": [],
      "stateMutability": "nonpayable",
      "type": "function"
    },
    {
      "inputs": [
        {
          "internalType": "uint256",
          "name": "_realThreshold",
          "type": "uint256"
        },
        {
          "internalType": "uint256",
          "name": "_fakeThreshold",
          "type": "uint256"
        }
      ],
      "name": "setThresholds",
      "outputs": [],
      "stateMutability": "nonpayable",
      "type": "function"
    },
    {
      "inputs": [
        {
          "internalType": "address",
          "name": "newOwner",
          "type": "address"
        }
      ],
      "name": "transferOwnership",
      "outputs": [],
      "stateMutability": "nonpayable",
      "type": "function"
    },
    {
      "inputs": [],
      "name": "voteManager",
      "outputs": [
        {
          "internalType": "contract VoteManager",
          "name": "",
          "type": "address"
        }
      ],
      "stateMutability": "view",
      "type": "function"
    }
  ],
  "bytecode": "0x608060405260286004556005805560416006556023600755602d600855348015610027575f5ffd5b5060405161135438038061135483398101604081905261004691610153565b6001600160a01b0382166100a15760405162461bcd60e51b815260206004820152601c60248201527f496e76616c6964204e657773526567697374727920616464726573730000000060448201526064015b60405180910390fd5b6001600160a01b0381166100f75760405162461bcd60e51b815260206004820152601b60248201527f496e76616c696420566f74654d616e61676572206164647265737300000000006044820152606401610098565b600180546001600160a01b039384166001600160a01b0319918216179091556002805492909316918116919091179091556003805490911633179055610184565b80516001600160a01b038116811461014e575f5ffd5b919050565b5f5f60408385031215610164575f5ffd5b61016d83610138565b915061017b60208401610138565b90509250929050565b6111c3806101915f395ff3fe608060405234801561000f575f5ffd5b5060043610610106575f3560e01c8063477423831161009e578063995e43391161006e578063995e433914610290578063b30dcdf1146102b0578063e3064a77146102c3578063f2fde38b146102d6578063f37e7672146102e9575f5ffd5b8063477423831461025857806374247b63146102615780638da5cb5b1461027457806397511a6414610287575f5ffd5b806333f3e74b116100d957806333f3e74b146101f357806337f49cfa14610225578063403fb4a81461023c57806342c1e58714610245575f5ffd5b80631b0c27da1461010a5780631c13e4f91461017e57806320d699d6146101a957806333727c4d146101be575b5f5ffd5b610161610118366004610d72565b5f6020819052908152604090208054600182015460028301546003840154600485015460058601546006870154600790970154959660ff95861696949593949293919290911688565b604051610175989796959493929190610dbd565b60405180910390f35b600154610191906001600160a01b031681565b6040516001600160a01b039091168152602001610175565b6101bc6101b7366004610d72565b6102f2565b005b6101e36101cc366004610d72565b5f9081526020819052604090206007015460ff1690565b6040519015158152602001610175565b610218610201366004610d72565b5f9081526020819052604090206001015460ff1690565b6040516101759190610e05565b61022e60045481565b604051908152602001610175565b61022e60055481565b600254610191906001600160a01b031681565b61022e60065481565b6101bc61026f366004610d72565b610379565b600354610191906001600160a01b031681565b61022e60075481565b6102a361029e366004610d72565b6103f0565b6040516101759190610e13565b6101bc6102be366004610d72565b6104cb565b6101bc6102d1366004610e74565b610592565b6101bc6102e4366004610eab565b610684565b61022e60085481565b6003546001600160a01b031633146103255760405162461bcd60e51b815260040161031c90610ec6565b60405180910390fd5b5f81116103745760405162461bcd60e51b815260206004820152601c60248201527f4d7573742072657175697265206174206c65617374203120766f746500000000604482015260640161031c565b600555565b6003546001600160a01b031633146103a35760405162461bcd60e51b815260040161031c90610ec6565b60648111156103eb5760405162461bcd60e51b81526020600482015260146024820152730576569676874206d75737420626520302d3130360641b604482015260640161031c565b600455565b6104346040805161010081019091525f808252602082019081526020015f81526020015f81526020015f81526020015f81526020015f81526020015f151581525090565b5f828152602081815260409182902082516101008101909352805483526001810154909183019060ff16600481111561046f5761046f610d89565b600481111561048057610480610d89565b815260028201546020820152600382015460408201526004820154606082015260058201546080820152600682015460a082015260079091015460ff16151560c09091015292915050565b60015460405163522eb9dd60e11b8152600481018390525f916001600160a01b03169063a45d73ba906024015f60405180830381865afa158015610511573d5f5f3e3d5ffd5b505050506040513d5f823e601f3d908101601f191682016040526105389190810190610fa6565b98505050505050505050806105855760405162461bcd60e51b815260206004820152601360248201527213995ddcc8191bd95cc81b9bdd08195e1a5cdd606a1b604482015260640161031c565b61058e8261071a565b5050565b6003546001600160a01b031633146105bc5760405162461bcd60e51b815260040161031c90610ec6565b80821161061b5760405162461bcd60e51b815260206004820152602760248201527f5265616c207468726573686f6c64206d757374206265203e2046616b652074686044820152661c995cda1bdb1960ca1b606482015260840161031c565b6064821115801561062d575060648111155b6106795760405162461bcd60e51b815260206004820152601860248201527f5468726573686f6c6473206d75737420626520302d3130300000000000000000604482015260640161031c565b600691909155600755565b6003546001600160a01b031633146106ae5760405162461bcd60e51b815260040161031c90610ec6565b6001600160a01b0381166106f85760405162461bcd60e51b815260206004820152601160248201527024b73b30b634b2103732bb9037bbb732b960791b604482015260640161031c565b600380546001600160a01b0319166001600160a01b0392909216919091179055565b60025460405163228907d360e21b8152600481018390525f916001600160a01b031690638a241f4c90602401608060405180830381865afa158015610761573d5f5f3e3d5ffd5b505050506040513d601f19601f82011682018060405250810190610785919061105f565b600154604051630311b82d60e01b8152600481018590529192505f916001600160a01b0390911690630311b82d90602401602060405180830381865afa1580156107d1573d5f5f3e3d5ffd5b505050506040513d601f19601f820116820180604052508101906107f591906110c2565b90508015801561080757506060820151155b156108d65760408051610100810182528481525f6020808301828152838501839052606084018390526080840183905260a084018390524260c085015260e084018390528783529082905292902081518155915160018084018054939493909160ff199091169083600481111561088057610880610d89565b021790555060408201516002820155606082015160038201556080820151600482015560a0820151600582015560c0820151600682015560e0909101516007909101805460ff1916911515919091179055505050565b5f6108e083610ae9565b90505f5f831180156108f557505f8460600151115b1561093d576064600454606461090b91906110ed565b6109159084611100565b6004546109229086611100565b61092c9190611117565b610936919061112a565b905061094d565b821561094a57508161094d565b50805b5f6109588286610b3b565b90505f610966858785610c32565b90505f60055487606001511015801561097e57505f86115b90506040518061010001604052808981526020018460048111156109a4576109a4610d89565b81526020018781526020018681526020018581526020018381526020014281526020018215158152505f5f8a81526020019081526020015f205f820151815f01556020820151816001015f6101000a81548160ff02191690836004811115610a0e57610a0e610d89565b02179055506040828101516002830155606083015160038301556080830151600483015560a0830151600583015560c0830151600683015560e0909201516007909101805460ff19169115159190911790555188907ff8f167590718a5b4c01e05056db9e0522f68294e4fb84f1f0dea7c20c960abbe90610a96908690889087904290611149565b60405180910390a28015610adf57877f0ec674d1d217cadca7e7303418fcb2e09003709351fe3a9cf207b060b4dd35608442604051610ad6929190611172565b60405180910390a25b5050505050505050565b5f81606001515f03610afc57505f919050565b5f826060015183604001516032610b139190611100565b8451610b20906064611100565b610b2a9190611117565b610b34919061112a565b9392505050565b5f6005548260600151108015610b4f575082155b15610b5b57505f610c2c565b600554826060015110610c0657606082015182515f9190610b7d906064611100565b610b87919061112a565b90505f836060015184602001516064610ba09190611100565b610baa919061112a565b90505f846060015185604001516064610bc39190611100565b610bcd919061112a565b90506008548311158015610be357506008548211155b8015610bf157506008548111155b15610c025760049350505050610c2c565b5050505b6006548310610c1757506001610c2c565b6007548311610c2857506002610c2c565b5060035b92915050565b5f5f5f90505f601485606001511015610c6757601485606001516028610c589190611100565b610c62919061112a565b610c6a565b60285b9050610c768183611117565b91505f60328511610c9157610c8c8560326110ed565b610c9c565b610c9c6032866110ed565b90505f6032610cac83601e611100565b610cb6919061112a565b9050610cc28185611117565b93505f88118015610cd657505f8760600151115b15610d47575f610ce588610ae9565b90505f818a11610cfe57610cf98a836110ed565b610d08565b610d08828b6110ed565b90505f610d168260646110ed565b90505f6064610d2683601e611100565b610d30919061112a565b9050610d3c8189611117565b975050505050610d55565b610d52600f85611117565b93505b60648411610d635783610d66565b60645b98975050505050505050565b5f60208284031215610d82575f5ffd5b5035919050565b634e487b7160e01b5f52602160045260245ffd5b60058110610db957634e487b7160e01b5f52602160045260245ffd5b9052565b8881526101008101610dd2602083018a610d9d565b8760408301528660608301528560808301528460a08301528360c083015282151560e08301529998505050505050505050565b60208101610c2c8284610d9d565b81518152602080830151610100830191610e2f90840182610d9d565b5060408301516040830152606083015160608301526080830151608083015260a083015160a083015260c083015160c083015260e0830151151560e083015292915050565b5f5f60408385031215610e85575f5ffd5b50508035926020909101359150565b6001600160a01b0381168114610ea8575f5ffd5b50565b5f60208284031215610ebb575f5ffd5b8135610b3481610e94565b60208082526013908201527213db9b1e481bdddb995c8818d85b8818d85b1b606a1b604082015260600190565b634e487b7160e01b5f52604160045260245ffd5b5f82601f830112610f16575f5ffd5b815167ffffffffffffffff811115610f3057610f30610ef3565b604051601f8201601f19908116603f0116810167ffffffffffffffff81118282101715610f5f57610f5f610ef3565b604052818152838201602001851015610f76575f5ffd5b8160208501602083015e5f918101602001919091529392505050565b80518015158114610fa1575f5ffd5b919050565b5f5f5f5f5f5f5f5f5f6101208a8c031215610fbf575f5ffd5b895160208b015160408c015160608d0151929b509099509750610fe181610e94565b60808b015160a08c015160c08d0151929850909650945067ffffffffffffffff81111561100c575f5ffd5b6110188c828d01610f07565b93505060e08a015167ffffffffffffffff811115611034575f5ffd5b6110408c828d01610f07565b9250506110506101008b01610f92565b90509295985092959850929598565b5f6080828403128015611070575f5ffd5b506040516080810167ffffffffffffffff8111828210171561109457611094610ef3565b6040908152835182526020808501519083015283810151908201526060928301519281019290925250919050565b5f602082840312156110d2575f5ffd5b5051919050565b634e487b7160e01b5f52601160045260245ffd5b81810381811115610c2c57610c2c6110d9565b8082028115828204841417610c2c57610c2c6110d9565b80820180821115610c2c57610c2c6110d9565b5f8261114457634e487b7160e01b5f52601260045260245ffd5b500490565b608081016111578287610d9d565b84602083015283604083015282606083015295945050505050565b604081016111808285610d9d565b826020830152939250505056fea26469706673582212206a0ab0e2058d112613469f1ff405d315e6960d793b728dd9694ec87b7cf79da764736f6c634300081c0033",
  "linkReferences": {},
  "deployedLinkReferences": {},
  "immutableReferences": {},
  "inputSourceName": "project/contracts/ConsensusEngine.sol",
  "buildInfoId": "solc-0_8_28-cb94a73561dc31cb28700089cd5a94757bfbc76a"
}