{
  "_format": "hh3-artifact-1",
  "contractName": "VoteManager",
  "sourceName": "contracts/VoteManager.sol",
  "abi": [
    {
      "inputs": [
        {
          "internalType": "address",
          "name": "_zkVerifier",
          "type": "address"
        },
        {
          "internalType": "address",
          "name": "_newsRegistry",
          "type": "address"
        }
      ],
      "stateMutability": "nonpayable",
      "type": "constructor"
    },
    {
      "anonymous": false,
      "inputs": [
        {
          "indexed": true,
          "internalType": "uint256",
          "name": "newsId",
          "type": "uint256"
        },
        {
          "indexed": true,
          "internalType": "bytes32",
          "name": "voterZkHash",
          "type": "bytes32"
        },
        {
          "indexed": false,
          "internalType": "enum VoteManager.VoteType",
          "name": "voteType",
          "type": "uint8"
        },
        {
          "indexed": false,
          "internalType": "uint256",
          "name": "timestamp",
          "type": "uint256"
        }
      ],
      "name": "VoteCast",
      "type": "event"
    },
    {
      "anonymous": false,
      "inputs": [
        {
          "indexed": true,
          "internalType": "uint256",
          "name": "newsId",
          "type": "uint256"
        },
        {
          "indexed": true,
          "internalType": "bytes32",
          "name": "voterZkHash",
          "type": "bytes32"
        },
        {
          "indexed": false,
          "internalType": "enum VoteManager.VoteType",
          "name": "oldVote",
          "type": "uint8"
        },
        {
          "indexed": false,
          "internalType": "enum VoteManager.VoteType",
          "name": "newVote",
          "type": "uint8"
        },
        {
          "indexed": false,
          "internalType": "uint256",
          "name": "timestamp",
          "type": "uint256"
        }
      ],
      "name": "VoteChanged",
      "type": "event"
    },
    {
      "inputs": [],
      "name": "allowVoteChanges",
      "outputs": [
        {
          "internalType": "bool",
          "name": "",
          "type": "bool"
        }
      ],
      "stateMutability": "view",
      "type": "function"
    },
    {
      "inputs": [
        {
          "internalType": "uint256",
          "name": "newsId",
          "type": "uint256"
        },
        {
          "internalType": "enum VoteManager.VoteType",
          "name": "voteType",
          "type": "uint8"
        }
      ],
      "name": "castVote",
      "outputs": [],
      "stateMutability": "nonpayable",
      "type": "function"
    },
    {
      "inputs": [
        {
          "internalType": "uint256",
          "name": "newsId",
          "type": "uint256"
        }
      ],
      "name": "getMyVote",
      "outputs": [
        {
          "internalType": "enum VoteManager.VoteType",
          "name": "",
          "type": "uint8"
        }
      ],
      "stateMutability": "view",
      "type": "function"
    },
    {
      "inputs": [
        {
          "internalType": "uint256",
          "name": "newsId",
          "type": "uint256"
        },
        {
          "internalType": "bytes32",
          "name": "voterZkHash",
          "type": "bytes32"
        }
      ],
      "name": "getVote",
      "outputs": [
        {
          "internalType": "enum VoteManager.VoteType",
          "name": "",
          "type": "uint8"
        }
      ],
      "stateMutability": "view",
      "type": "function"
    },
    {
      "inputs": [
        {
          "internalType": "uint256",
          "name": "newsId",
          "type": "uint256"
        }
      ],
      "name": "getVoteCounts",
      "outputs": [
        {
          "components": [
            {
              "internalType": "uint256",
              "name": "real",
              "type": "uint256"
            },
            {
              "internalType": "uint256",
              "name": "fake",
              "type": "uint256"
            },
            {
              "internalType": "uint256",
              "name": "uncertain",
              "type": "uint256"
            },
            {
              "internalType": "uint256",
              "name": "total",
              "type": "uint256"
            }
          ],
          "internalType": "struct VoteManager.VoteCounts",
          "name": "",
          "type": "tuple"
        }
      ],
      "stateMutability": "view",
      "type": "function"
    },
    {
      "inputs": [
        {
          "internalType": "uint256",
          "name": "newsId",
          "type": "uint256"
        }
      ],
      "name": "getVotePercentages",
      "outputs": [
        {
          "internalType": "uint256",
          "name": "realPercent",
          "type": "uint256"
        },
        {
          "internalType": "uint256",
          "name": "fakePercent",
          "type": "uint256"
        },
        {
          "internalType": "uint256",
          "name": "uncertainPercent",
          "type": "uint256"
        }
      ],
      "stateMutability": "view",
      "type": "function"
    },
    {
      "inputs": [
        {
          "internalType": "uint256",
          "name": "newsId",
          "type": "uint256"
        },
        {
          "internalType": "bytes32",
          "name": "voterZkHash",
          "type": "bytes32"
        }
      ],
      "name": "hasVoted",
      "outputs": [
        {
          "internalType": "bool",
          "name": "",
          "type": "bool"
        }
      ],
      "stateMutability": "view",
      "type": "function"
    },
    {
      "inputs": [
        {
          "internalType": "uint256",
          "name": "newsId",
          "type": "uint256"
        }
      ],
      "name": "haveIVoted",
      "outputs": [
        {
          "internalType": "bool",
          "name": "",
          "type": "bool"
        }
      ],
      "stateMutability": "view",
      "type": "function"
    },
    {
      "inputs": [],
      "name": "newsRegistry",
      "outputs": [
        {
          "internalType": "contract NewsRegistry",
          "name": "",
          "type": "address"
        }
      ],
      "stateMutability": "view",
      "type": "function"
    },
    {
      "inputs": [],
      "name": "owner",
      "outputs": [
        {
          "internalType": "address",
          "name": "",
          "type": "address"
        }
      ],
      "stateMutability": "view",
      "type": "function"
    },
    {
      "inputs": [
        {
          "internalType": "bool",
          "name": "allow",
          "type": "bool"
        }
      ],
      "name": "setAllowVoteChanges",
      "outputs": [],
      "stateMutability": "nonpayable",
      "type": "function"
    },
    {
      "inputs": [
        {
          "internalType": "address",
          "name": "newOwner",
          "type": "address"
        }
      ],
      "name": "transferOwnership",
      "outputs": [],
      "stateMutability": "nonpayable",
      "type": "function"
    },
    {
      "inputs": [
        {
          "internalType": "uint256",
          "name": "",
          "type": "uint256"
        }
      ],
      "name": "voteCounts",
      "outputs": [
        {
          "internalType": "uint256",
          "name": "real",
          "type": "uint256"
        },
        {
          "internalType": "uint256",
          "name": "fake",
          "type": "uint256"
        },
        {
          "internalType": "uint256",
          "name": "uncertain",
          "type": "uint256"
        },
        {
          "internalType": "uint256",
          "name": "total",
          "type": "uint256"
        }
      ],
      "stateMutability": "view",
      "type": "function"
    },
    {
      "inputs": [
        {
          "internalType": "uint256",
          "name": "",
          "type": "uint256"
        },
        {
          "internalType": "bytes32",
          "name": "",
          "type": "bytes32"
        }
      ],
      "name": "votes",
      "outputs": [
        {
          "internalType": "enum VoteManager.VoteType",
          "name": "",
          "type": "uint8"
        }
      ],
      "stateMutability": "view",
      "type": "function"
    },
    {
      "inputs": [],
      "name": "zkVerifier",
      "outputs": [
        {
          "internalType": "contract ZKVerifier",
          "name": "",
          "type": "address"
        }
      ],
      "stateMutability": "view",
      "type": "function"
    }
  ],
  "bytecode": "0x608060405234801561000f575f5ffd5b5060405161138738038061138783398101604081905261002e9161014c565b6001600160a01b0382166100895760405162461bcd60e51b815260206004820152601a60248201527f496e76616c6964205a4b5665726966696572206164647265737300000000000060448201526064015b60405180910390fd5b6001600160a01b0381166100df5760405162461bcd60e51b815260206004820152601c60248201527f496e76616c6964204e65777352656769737472792061646472657373000000006044820152606401610080565b600280546001600160a01b039384166001600160a01b031991821617909155600380549290931691161790556004805460ff60a01b1933166001600160a81b031990911617600160a01b17905561017d565b80516001600160a01b0381168114610147575f5ffd5b919050565b5f5f6040838503121561015d575f5ffd5b61016683610131565b915061017460208401610131565b90509250929050565b6111fd8061018a5f395ff3fe608060405234801561000f575f5ffd5b50600436106100f0575f3560e01c80638d7293b211610093578063d6df096d11610063578063d6df096d146102c0578063e098bcd5146102d3578063f2fde38b146102e7578063f76b4049146102fa575f5ffd5b80638d7293b21461025c5780638da5cb5b146102875780639ae493fb1461029a578063ac37af1c146102ad575f5ffd5b806356781388116100ce57806356781388146101a75780635b0c8a63146101bc57806374417bf4146101f35780638a241f4c14610216575f5ffd5b80631c13e4f9146100f45780633c3a220d146101245780635015de3a14610179575b5f5ffd5b600354610107906001600160a01b031681565b6040516001600160a01b0390911681526020015b60405180910390f35b610159610132366004610e67565b600160208190525f9182526040909120805491810154600282015460039092015490919084565b60408051948552602085019390935291830152606082015260800161011b565b61018c610187366004610e67565b61030d565b6040805193845260208401929092529082015260600161011b565b6101ba6101b5366004610e7e565b6103cf565b005b6101e66101ca366004610eaf565b5f60208181529281526040808220909352908152205460ff1681565b60405161011b9190610f03565b610206610201366004610eaf565b61079f565b604051901515815260200161011b565b610229610224366004610e67565b6107d7565b60405161011b91908151815260208083015190820152604080830151908201526060918201519181019190915260800190565b6101e661026a366004610eaf565b5f9182526020828152604080842092845291905290205460ff1690565b600454610107906001600160a01b031681565b6101ba6102a8366004610f21565b610841565b6102066102bb366004610e67565b6108af565b600254610107906001600160a01b031681565b60045461020690600160a01b900460ff1681565b6101ba6102f5366004610f57565b610960565b6101e6610308366004610e67565b610a1c565b5f81815260016020818152604080842081516080810183528154815293810154928401929092526002820154908301526003015460608201819052829182918203610361575f5f5f935093509350506103c8565b6060810151815161037490612710610f86565b61037e9190610f9d565b9350806060015181602001516127106103979190610f86565b6103a19190610f9d565b9250806060015181604001516127106103ba9190610f86565b6103c49190610f9d565b9150505b9193909250565b60025460405163fb9635b360e01b81523360048201525f916001600160a01b03169063fb9635b390602401602060405180830381865afa158015610415573d5f5f3e3d5ffd5b505050506040513d601f19601f820116820180604052508101906104399190610fbc565b9050806104815760405162461bcd60e51b8152602060048201526011602482015270155cd95c881b9bdd081d995c9a599a5959607a1b60448201526064015b60405180910390fd5b60025460405163c181b27360e01b8152600481018390526001600160a01b039091169063c181b27390602401602060405180830381865afa1580156104c8573d5f5f3e3d5ffd5b505050506040513d601f19601f820116820180604052508101906104ec9190610fe3565b6105385760405162461bcd60e51b815260206004820152601960248201527f5573657220766572696669636174696f6e20696e76616c6964000000000000006044820152606401610478565b81600181600381111561054d5761054d610ecf565b148061056a5750600281600381111561056857610568610ecf565b145b806105865750600381600381111561058457610584610ecf565b145b6105c65760405162461bcd60e51b8152602060048201526011602482015270496e76616c696420766f7465207479706560781b6044820152606401610478565b60035460405163522eb9dd60e11b8152600481018690525f916001600160a01b03169063a45d73ba906024015f60405180830381865afa15801561060c573d5f5f3e3d5ffd5b505050506040513d5f823e601f3d908101601f19168201604052610633919081019061109d565b98505050505050505050806106805760405162461bcd60e51b815260206004820152601360248201527213995ddcc8191bd95cc81b9bdd08195e1a5cdd606a1b6044820152606401610478565b60025460405163fb9635b360e01b81523360048201525f916001600160a01b03169063fb9635b390602401602060405180830381865afa1580156106c6573d5f5f3e3d5ffd5b505050506040513d601f19601f820116820180604052508101906106ea9190610fbc565b5f8781526020818152604080832084845290915281205491925060ff9091169081600381111561071c5761071c610ecf565b1461078b57600454600160a01b900460ff1661077a5760405162461bcd60e51b815260206004820152601860248201527f566f7465206368616e676573206e6f7420616c6c6f77656400000000000000006044820152606401610478565b61078687838389610aed565b610796565b610796878388610d22565b50505050505050565b5f805f8481526020818152604080832086845290915290205460ff1660038111156107cc576107cc610ecf565b141590505b92915050565b6107fe60405180608001604052805f81526020015f81526020015f81526020015f81525090565b505f908152600160208181526040928390208351608081018552815481529281015491830191909152600281015492820192909252600390910154606082015290565b6004546001600160a01b031633146108915760405162461bcd60e51b815260206004820152601360248201527213db9b1e481bdddb995c8818d85b8818d85b1b606a1b6044820152606401610478565b60048054911515600160a01b0260ff60a01b19909216919091179055565b60025460405163fb9635b360e01b81523360048201525f9182916001600160a01b039091169063fb9635b390602401602060405180830381865afa1580156108f9573d5f5f3e3d5ffd5b505050506040513d601f19601f8201168201806040525081019061091d9190610fbc565b90508061092c57505f92915050565b5f8381526020818152604080832084845290915281205460ff16600381111561095757610957610ecf565b14159392505050565b6004546001600160a01b031633146109b05760405162461bcd60e51b815260206004820152601360248201527213db9b1e481bdddb995c8818d85b8818d85b1b606a1b6044820152606401610478565b6001600160a01b0381166109fa5760405162461bcd60e51b815260206004820152601160248201527024b73b30b634b2103732bb9037bbb732b960791b6044820152606401610478565b600480546001600160a01b0319166001600160a01b0392909216919091179055565b60025460405163fb9635b360e01b81523360048201525f9182916001600160a01b039091169063fb9635b390602401602060405180830381865afa158015610a66573d5f5f3e3d5ffd5b505050506040513d601f19601f82011682018060405250810190610a8a9190610fbc565b905080610acd5760405162461bcd60e51b8152602060048201526011602482015270155cd95c881b9bdd081d995c9a599a5959607a1b6044820152606401610478565b5f928352602083815260408085209285529190529091205460ff16919050565b806003811115610aff57610aff610ecf565b826003811115610b1157610b11610ecf565b03610b4f5760405162461bcd60e51b815260206004820152600e60248201526d53616d6520766f7465207479706560901b6044820152606401610478565b6001826003811115610b6357610b63610ecf565b03610b8b575f848152600160205260408120805491610b8183611156565b9190505550610bfb565b6002826003811115610b9f57610b9f610ecf565b03610bc0575f848152600160208190526040822001805491610b8183611156565b6003826003811115610bd457610bd4610ecf565b03610bfb575f848152600160205260408120600201805491610bf583611156565b91905055505b6001816003811115610c0f57610c0f610ecf565b03610c37575f848152600160205260408120805491610c2d8361116b565b9190505550610ca7565b6002816003811115610c4b57610c4b610ecf565b03610c6c575f848152600160208190526040822001805491610c2d8361116b565b6003816003811115610c8057610c80610ecf565b03610ca7575f848152600160205260408120600201805491610ca18361116b565b91905055505b5f848152602081815260408083208684529091529020805482919060ff19166001836003811115610cda57610cda610ecf565b021790555082847ff9dd04fb0cccdc799aea62676416104a9f23ccb8dad14d1bde337daafa86242f848442604051610d1493929190611183565b60405180910390a350505050565b5f838152602081815260408083208584529091529020805482919060ff19166001836003811115610d5557610d55610ecf565b02179055506001816003811115610d6e57610d6e610ecf565b03610d96575f838152600160205260408120805491610d8c8361116b565b9190505550610e06565b6002816003811115610daa57610daa610ecf565b03610dcb575f838152600160208190526040822001805491610d8c8361116b565b6003816003811115610ddf57610ddf610ecf565b03610e06575f838152600160205260408120600201805491610e008361116b565b91905055505b5f838152600160205260408120600301805491610e228361116b565b919050555081837f2bba72ac0a5f1c40b1875c485c85b7d13f9a9ddedaf8886cfc07e8e005a49e988342604051610e5a9291906111ac565b60405180910390a3505050565b5f60208284031215610e77575f5ffd5b5035919050565b5f5f60408385031215610e8f575f5ffd5b82359150602083013560048110610ea4575f5ffd5b809150509250929050565b5f5f60408385031215610ec0575f5ffd5b50508035926020909101359150565b634e487b7160e01b5f52602160045260245ffd5b60048110610eff57634e487b7160e01b5f52602160045260245ffd5b9052565b602081016107d18284610ee3565b8015158114610f1e575f5ffd5b50565b5f60208284031215610f31575f5ffd5b8135610f3c81610f11565b9392505050565b6001600160a01b0381168114610f1e575f5ffd5b5f60208284031215610f67575f5ffd5b8135610f3c81610f43565b634e487b7160e01b5f52601160045260245ffd5b80820281158282048414176107d1576107d1610f72565b5f82610fb757634e487b7160e01b5f52601260045260245ffd5b500490565b5f60208284031215610fcc575f5ffd5b5051919050565b8051610fde81610f11565b919050565b5f60208284031215610ff3575f5ffd5b8151610f3c81610f11565b634e487b7160e01b5f52604160045260245ffd5b5f82601f830112611021575f5ffd5b815167ffffffffffffffff81111561103b5761103b610ffe565b604051601f8201601f19908116603f0116810167ffffffffffffffff8111828210171561106a5761106a610ffe565b604052818152838201602001851015611081575f5ffd5b8160208501602083015e5f918101602001919091529392505050565b5f5f5f5f5f5f5f5f5f6101208a8c0312156110b6575f5ffd5b895160208b015160408c015160608d0151929b5090995097506110d881610f43565b60808b015160a08c015160c08d0151929850909650945067ffffffffffffffff811115611103575f5ffd5b61110f8c828d01611012565b93505060e08a015167ffffffffffffffff81111561112b575f5ffd5b6111378c828d01611012565b9250506111476101008b01610fd3565b90509295985092959850929598565b5f8161116457611164610f72565b505f190190565b5f6001820161117c5761117c610f72565b5060010190565b606081016111918286610ee3565b61119e6020830185610ee3565b826040830152949350505050565b604081016111ba8285610ee3565b826020830152939250505056fea264697066735822122034351b55d5ee3ea93e3ff68be8ce327342147043c29517b5d83fb0fc74dac9a464736f6c634300081c0033",
  "linkReferences": {},
  "deployedLinkReferences": {},
  "immutableReferences": {},
  "inputSourceName": "project/contracts/VoteManager.sol",
  "buildInfoId": "solc-0_8_28-ebd8c2e58207e786ac6c55a395a15c5480b7870a"
}