{
  "_format": "hh3-artifact-1",
  "contractName": "ZKVerifier",
  "sourceName": "contracts/ZKVerifier.sol",
  "abi": [
    {
      "inputs": [],
      "stateMutability": "nonpayable",
      "type": "constructor"
    },
    {
      "anonymous": false,
      "inputs": [
        {
          "indexed": true,
          "internalType": "bytes32",
          "name": "zkHash",
          "type": "bytes32"
        },
        {
          "indexed": true,
          "internalType": "address",
          "name": "userAddress",
          "type": "address"
        },
        {
          "indexed": false,
          "internalType": "uint256",
          "name": "timestamp",
          "type": "uint256"
        }
      ],
      "name": "UserRevoked",
      "type": "event"
    },
    {
      "anonymous": false,
      "inputs": [
        {
          "indexed": true,
          "internalType": "bytes32",
          "name": "zkHash",
          "type": "bytes32"
        },
        {
          "indexed": true,
          "internalType": "address",
          "name": "userAddress",
          "type": "address"
        },
        {
          "indexed": false,
          "internalType": "uint256",
          "name": "timestamp",
          "type": "uint256"
        }
      ],
      "name": "UserVerified",
      "type": "event"
    },
    {
      "inputs": [
        {
          "internalType": "address",
          "name": "",
          "type": "address"
        }
      ],
      "name": "addressToZkHash",
      "outputs": [
        {
          "internalType": "bytes32",
          "name": "",
          "type": "bytes32"
        }
      ],
      "stateMutability": "view",
      "type": "function"
    },
    {
      "inputs": [
        {
          "internalType": "bytes32",
          "name": "zkHash",
          "type": "bytes32"
        }
      ],
      "name": "getAddress",
      "outputs": [
        {
          "internalType": "address",
          "name": "",
          "type": "address"
        }
      ],
      "stateMutability": "view",
      "type": "function"
    },
    {
      "inputs": [
        {
          "internalType": "address",
          "name": "userAddress",
          "type": "address"
        }
      ],
      "name": "getZkHash",
      "outputs": [
        {
          "internalType": "bytes32",
          "name": "",
          "type": "bytes32"
        }
      ],
      "stateMutability": "view",
      "type": "function"
    },
    {
      "inputs": [
        {
          "internalType": "bytes32",
          "name": "zkHash",
          "type": "bytes32"
        }
      ],
      "name": "isVerified",
      "outputs": [
        {
          "internalType": "bool",
          "name": "",
          "type": "bool"
        }
      ],
      "stateMutability": "view",
      "type": "function"
    },
    {
      "inputs": [],
      "name": "owner",
      "outputs": [
        {
          "internalType": "address",
          "name": "",
          "type": "address"
        }
      ],
      "stateMutability": "view",
      "type": "function"
    },
    {
      "inputs": [
        {
          "internalType": "bytes32",
          "name": "zkHash",
          "type": "bytes32"
        }
      ],
      "name": "revokeVerification",
      "outputs": [],
      "stateMutability": "nonpayable",
      "type": "function"
    },
    {
      "inputs": [],
      "name": "totalVerifiedUsers",
      "outputs": [
        {
          "internalType": "uint256",
          "name": "",
          "type": "uint256"
        }
      ],
      "stateMutability": "view",
      "type": "function"
    },
    {
      "inputs": [
        {
          "internalType": "address",
          "name": "newOwner",
          "type": "address"
        }
      ],
      "name": "transferOwnership",
      "outputs": [],
      "stateMutability": "nonpayable",
      "type": "function"
    },
    {
      "inputs": [
        {
          "internalType": "bytes32",
          "name": "",
          "type": "bytes32"
        }
      ],
      "name": "verifiedUsers",
      "outputs": [
        {
          "internalType": "bool",
          "name": "",
          "type": "bool"
        }
      ],
      "stateMutability": "view",
      "type": "function"
    },
    {
      "inputs": [
        {
          "internalType": "bytes32",
          "name": "zkHash",
          "type": "bytes32"
        },
        {
          "internalType": "bytes",
          "name": "proof",
          "type": "bytes"
        }
      ],
      "name": "verifyAndRegister",
      "outputs": [],
      "stateMutability": "nonpayable",
      "type": "function"
    },
    {
      "inputs": [
        {
          "internalType": "bytes32",
          "name": "",
          "type": "bytes32"
        }
      ],
      "name": "zkHashToAddress",
      "outputs": [
        {
          "internalType": "address",
          "name": "",
          "type": "address"
        }
      ],
      "stateMutability": "view",
      "type": "function"
    }
  ],
  "bytecode": "0x6080604052348015600e575f5ffd5b50600480546001600160a01b031916331790556107568061002e5f395ff3fe608060405234801561000f575f5ffd5b50600436106100a6575f3560e01c80638da5cb5b1161006e5780638da5cb5b1461014d578063c181b27314610160578063d9e3507614610192578063e4fa0bfd146101ba578063f2fde38b146101dc578063fb9635b3146101ef575f5ffd5b80630b3d0887146100aa57806321f8a721146100c65780633abbc72a146101065780633e70109f1461012557806370eba1241461013a575b5f5ffd5b6100b360035481565b6040519081526020015b60405180910390f35b6100ee6100d43660046105db565b5f908152600160205260409020546001600160a01b031690565b6040516001600160a01b0390911681526020016100bd565b6100b36101143660046105f2565b60026020525f908152604090205481565b610138610133366004610618565b610217565b005b6101386101483660046105db565b6103e3565b6004546100ee906001600160a01b031681565b61018261016e3660046105db565b5f9081526020819052604090205460ff1690565b60405190151581526020016100bd565b6100ee6101a03660046105db565b60016020525f90815260409020546001600160a01b031681565b6101826101c83660046105db565b5f6020819052908152604090205460ff1681565b6101386101ea3660046105f2565b6104ff565b6100b36101fd3660046105f2565b6001600160a01b03165f9081526002602052604090205490565b8261025b5760405162461bcd60e51b815260206004820152600f60248201526e092dcecc2d8d2c840b49640d0c2e6d608b1b60448201526064015b60405180910390fd5b5f8381526020819052604090205460ff16156102b15760405162461bcd60e51b8152602060048201526015602482015274155cd95c88185b1c9958591e481d995c9a599a5959605a1b6044820152606401610252565b335f908152600260205260409020541561030d5760405162461bcd60e51b815260206004820152601c60248201527f4164647265737320616c726561647920686173206964656e74697479000000006044820152606401610252565b610318838383610595565b6103545760405162461bcd60e51b815260206004820152600d60248201526c24b73b30b634b210383937b7b360991b6044820152606401610252565b5f83815260208181526040808320805460ff19166001908117909155825280832080546001600160a01b0319163390811790915583526002909152812084905560038054916103a2836106a3565b9091555050604051428152339084907f9cbad650af5f4a9256bc7b0b93a855c363dd6d690b2ca3c315ab954f0263c5ae9060200160405180910390a3505050565b6004546001600160a01b0316331461040d5760405162461bcd60e51b8152600401610252906106bb565b5f8181526020819052604090205460ff1661045e5760405162461bcd60e51b8152602060048201526011602482015270155cd95c881b9bdd081d995c9a599a5959607a1b6044820152606401610252565b5f8181526001602090815260408083208054848452828520805460ff1916905581546001600160a01b0319169091556001600160a01b0316808452600290925282208290556003805491926104b2836106fc565b9190505550806001600160a01b0316827fd05d0f6b7c47fc87f8ff4472c360a4439244a723901708ef663ae4482b6c2243426040516104f391815260200190565b60405180910390a35050565b6004546001600160a01b031633146105295760405162461bcd60e51b8152600401610252906106bb565b6001600160a01b0381166105735760405162461bcd60e51b815260206004820152601160248201527024b73b30b634b2103732bb9037bbb732b960791b6044820152606401610252565b600480546001600160a01b0319166001600160a01b0392909216919091179055565b5f60208210156105a657505f6105d4565b5f83836040516105b7929190610711565b604051908190039020905080158015906105d057508415155b9150505b9392505050565b5f602082840312156105eb575f5ffd5b5035919050565b5f60208284031215610602575f5ffd5b81356001600160a01b03811681146105d4575f5ffd5b5f5f5f6040848603121561062a575f5ffd5b83359250602084013567ffffffffffffffff811115610647575f5ffd5b8401601f81018613610657575f5ffd5b803567ffffffffffffffff81111561066d575f5ffd5b86602082840101111561067e575f5ffd5b939660209190910195509293505050565b634e487b7160e01b5f52601160045260245ffd5b5f600182016106b4576106b461068f565b5060010190565b60208082526021908201527f4f6e6c79206f776e65722063616e2063616c6c20746869732066756e6374696f6040820152603760f91b606082015260800190565b5f8161070a5761070a61068f565b505f190190565b818382375f910190815291905056fea26469706673582212207acf1f40a04c082423384ec272b9e3b6552ea98e61850bd6204da25a997df9ca64736f6c634300081c0033",
  "linkReferences": {},
  "deployedLinkReferences": {},
  "immutableReferences": {},
  "inputSourceName": "project/contracts/ZKVerifier.sol",
  "buildInfoId": "solc-0_8_28-bc669db5821199a945ae46213b20600533eb7355"
}